:100000000C9434000C9451000C9451000C94510049
:100010000C9451000C9451000C9451000C9451001C
:100020000C9451000C9451000C9451000C9451000C
:100030000C9451000C9451000C9451000C945100FC
:100040000C9429050C9451000C9451000C9451000F
:100050000C9451000C9451000C9451000C945100DC
:100060000C9451000C94510011241FBECFEFD8E026
:10007000DEBFCDBF12E0A0E0B1E0ECEEF3E102C0E4
:1000800005900D92A032B107D9F725E0A0E2B2E0C9
:1000900001C01D92AD3AB207E1F70E9462090C94CB
:1000A000F4090C940000C1E00E942B03019751F465
:1000B000C093A60224E630E040E060E080E00E94C9
:1000C000F708F2CF1092A602F5CF6091A2027091CC
:1000D000A3028091A4029091A5020E94D0022AE07E
:1000E00030E040E060E080E00E94F708EECF2F9221
:1000F0003F924F925F926F927F928F929F92AF92B8
:10010000BF92CF92DF92EF92FF920F931F93CF9304
:10011000DF934AE5442E512C02E310E05CEEA52E5D
:10012000BB24BA9462EEE62EFF24FA94C6E4D0E033
:1001300087E3682E712C98EDC92EDD24DA942CE328
:10014000822E912C3DE2232E312C0E944E039F9350
:100150008F938AE192E09F938F930E94C9030F903F
:100160000F900F900F908091A602813009F04AC045
:100170008091200290912102019719F51092A3021B
:100180001092A2021092A5021092A4020E94730380
:100190002AE030E040E060E080E0DF91CF911F9105
:1001A0000F91FF90EF90DF90CF90BF90AF909F9016
:1001B0008F907F906F905F904F903F902F900C9416
:1001C000F708B092A302A092A20280E590E090937B
:1001D000A5028093A4022AEF30E040E060E080E0D6
:1001E0000E94F708D093A302C093A202D093A50265
:1001F000C093A40230E020E041E060E080E00E9493
:10020000F70822C02898809120029091210201973E
:1002100009F06CC00E944E0388309105A8F4FC01DF
:10022000EC5EFE4F0C94D4096B011C0147014201A6
:100230005901240150016201F092A302E092A2024E
:100240001093A5020093A4020E9437038135910503
:100250000CF47BCFD093A302C093A2028AE090E07B
:100260009093A5028093A40224E630E040E060E091
:1002700080E00E94F70881E090E090932102809353
:10028000200256CFD092A302C092A202D9CFD0931F
:10029000A302C093A2029092A5028092A402D4CF9E
:1002A0007092A3026092A202D092A502C092A40210
:1002B000CBCF1093A3020093A202F092A502E0928A
:1002C000A402C2CF9092A3028092A2023092A50211
:1002D0002092A402B9CFF092A302E092A2028EEC87
:1002E0009FEF9093A5028093A402AECF0E944E038D
:1002F000029779F410922803109227038BE490E080
:100300009093A3028093A2025092A5024092A4026D
:100310009BCF0E944E03049749F410922803109239
:100320002703D093A302C093A202BECF0E944E0324
:10033000019749F4D092A302C092A202D093A502E1
:10034000C093A40281CF0E944E03069749F4709295
:10035000A3026092A202B092A502A092A40274CF5E
:100360000E944E03039749F410922803109227032A
:10037000F092A302E092A202E1CF0E944E03892BE9
:1003800039F48AEB9FEF9093A3028093A202E3CF0C
:100390000E944E03079709F057CF5092A302409254
:1003A000A2021093A5020093A40224E130E040E0F1
:1003B00024CFCF93DF9300D0CDB7DEB70E949E034A
:1003C00022E041EA52E070E060E083E590E00E94C4
:1003D000A60723E046E253E070E060E085E690E0A7
:1003E0000E94A60724E048E254E0BE016F5F7F4F01
:1003F00087E790E00E94A60711E030E020E045E0AA
:1004000060E080E00E94F70885B1812785B9F5CFCB
:1004100080E480937C0086E880937A000895F894C5
:10042000806480937C0080917A00806480937A005D
:1004300080917A0084FFFCCF80917A008061809364
:100440007A00789480917800909179009370089563
:10045000811105C07093890060938800089570939E
:100460008B0060938A0008958AB1806F8AB98BB13E
:100470008F708BB981EA8093800083E08093810044
:10048000109285001092840010928900A8E8B0E0D4
:100490001C9210928B00EAE8F0E0108284B1866032
:1004A00084B911961C921E9211821082089577FFD2
:1004B00002C070E060E06536710514F064E670E03B
:1004C0009B01220F331F75956795620F731F811172
:1004D00009C070938B0060938A0070932A04609324
:1004E00029040895709389006093880070932E0406
:1004F00060932D040895CF93C62F262F30E08111ED
:100500002BC080912B0490912C048217930759F0F3
:1005100070E060E080E00E9457028FE99FE0019761
:10052000F1F700C00000C1110EC05E985F9A1092F2
:100530002C0410922B048FE39CE90197F1F700C083
:100540000000CF9108955E9A5F9881E090E09093CB
:100550002C0480932B04EFCF80912F0490913004D2
:100560008217930759F070E060E081E00E94570223
:100570008FE99FE00197F1F700C00000C11107C0AB
:100580005C9A5D981092300410922F04D4CF5C983E
:100590005D9A81E090E09093300480932F04CBCF5C
:1005A0000F931F93CF93DF93EC018B0197FF1CC038
:1005B00061E081E00E947B02D195C195D10917FFCE
:1005C00018C061E080E00E947B021195019511093D
:1005D000B80180E00E945702BE0181E0DF91CF9117
:1005E0001F910F910C94570260E081E00E947B0202
:1005F000E6CF60E080E00E947B02EACF8093C400F7
:100600001092C5001092C00088E18093C10086E07E
:100610008093C20008959091C00095FFFCCF809315
:10062000C6000895CF938091C00087FFFCCFC09192
:10063000C6008C2F0E940B038C2FCF910895CF936F
:10064000DF93EC018991811103C0DF91CF9108956F
:100650000E940B03F7CF80E00E940F0221E030E000
:100660008436910510F030E020E0C901089584E05F
:100670000E940F022BEFAC012403C001259F900DB7
:10068000112485509C4E63E370E00E949E09CB01CB
:100690006536710514F084E690E00895CF93DF93FA
:1006A000C0E0D1E0CC0F8D2F0E940F028C32914020
:1006B0000CF4C160DF5FD430A9F78C2F90E0DF919C
:1006C000CF91089583B182958F7091E089278170D1
:1006D00090E0089583B186958695869591E0892767
:1006E000817090E008955B9A2FEF85EA9EE021509B
:1006F00080409040E1F700C000005B982FEF85EA52
:100700009EE0215080409040E1F700C00000089535
:1007100085E00E940F02843F914010F4289A0895CA
:100720002898089589B182FB882780F991E089276C
:1007300008950E9492038823E1F30895F89485E0D8
:1007400085BD81E080936E0084E686BD789408952F
:1007500087E60E94FE020C9408020E94A8030E94F1
:100760003402539A5B98209A52985A9A2498239864
:1007700085B1886185B960E080E00E947B0260E01D
:1007800081E00E947B0270E060E090E080E00C94E9
:10079000D0024F925F926F927F928F929F92AF9210
:1007A000BF92CF92DF92EF92FF920F931F93CF935E
:1007B000DF93CDB7DEB7DE015396ED91FD918D014C
:1007C0005AE0652E712C8081853281F45F0182E0D0
:1007D000A80EB11C8181843609F450C090F4833690
:1007E00061F4F80180810E5F1F4F07C0882309F470
:1007F0005DC05F019FEFA91AB90A0E940B03F501C2
:10080000E2CF833771F130E1832E912CE12C40E16E
:10081000F42E883791F7F801C080D1800E5F1F4F0A
:10082000843659F4D7FE06C0D194C194D1088DE224
:100830000E940B03CE14DF0448F1C601B7010E94E9
:100840008A092C01675F7D4FFB0180810E940B03A9
:100850006201C701B4010E948A097B01672B69F715
:10086000CECFF801E080F1800E5F1F4FF70181913C
:100870007F01882321F20E940B03F8CF9AE0892E92
:10088000912C20E1E22E27E2F22EC5CFC701B30161
:100890000E948A097B016230710560F6C6010E94E0
:1008A0008A09FB01E75FFD4F8081A7CF90E080E0E0
:1008B000DF91CF911F910F91FF90EF90DF90CF903C
:1008C000BF90AF909F908F907F906F905F904F9070
:1008D000089500913204039500933204E09142049C
:1008E000F0914304C191CDBFD191DEBF0F910FBFF5
:1008F000FF91EF91DF91CF91BF91AF919F918F9138
:100900007F916F915F914F913F912F911F910F9127
:10091000FF90EF90DF90CF90BF90AF909F908F901F
:100920007F906F905F904F903F902F901F900F900F
:1009300008950F921F922F923F924F925F926F9263
:100940007F928F929F92AF92BF92CF92DF92EF925F
:10095000FF920F931F932F933F934F935F936F9348
:100960007F938F939F93AF93BF93CF93DF93EF9337
:10097000FF930FB70F93E0914A04F0914B04CDB76A
:10098000C193DEB7D1930091370400933804E0910E
:100990004204F0914304E0934A04F0934B04C19164
:1009A000CDBFD191DEBF0F910FBFFF91EF91DF91CE
:1009B000CF91BF91AF919F918F917F916F915F91F7
:1009C0004F913F912F911F910F91FF90EF90DF90EA
:1009D000CF90BF90AF909F908F907F906F905F90DF
:1009E0004F903F902F901F900F90089500913704E3
:1009F00000933804E0914204F0914304E0934A04E8
:100A0000F0934B04C191CDBFD191DEBF0F910FBFC9
:100A1000FF91EF91DF91CF91BF91AF919F918F9116
:100A20007F916F915F914F913F912F911F910F9106
:100A3000FF90EF90DF90CF90BF90AF909F908F90FE
:100A40007F906F905F904F903F902F901F900F90EE
:100A500008950F921F922F923F924F925F926F9242
:100A60007F928F929F92AF92BF92CF92DF92EF923E
:100A7000FF920F931F932F933F934F935F936F9327
:100A80007F938F939F93AF93BF93CF93DF93EF9316
:100A9000FF930FB700680F930091490403950093EB
:100AA0004904013041F4CDB7DEB7E0914A04F0913A
:100AB0004B04C193D19304E606BDF0E01F2E789459
:100AC0000E948C0600000E94FF050F910FBFFF914E
:100AD000EF91DF91CF91BF91AF919F918F917F91D6
:100AE0006F915F914F913F912F911F910F91FF90C7
:100AF000EF90DF90CF90BF90AF909F908F907F90BE
:100B00006F905F904F903F902F901F900F9008959F
:100B1000FA01808331979083319710823197108248
:100B2000319710823197108231971082319710825D
:100B3000319710823197108231971082319710824D
:100B4000319710823197108231971082319710823D
:100B5000319710823197108231971082319710822D
:100B6000319710823197108231971082319710821D
:100B7000319710823197108231976083319770835B
:100B800031971082319710823197108231971082FD
:100B90003197108231971082319780E88083CA01A3
:100BA00083970895089508950895089508950895E0
:100BB000089508950895F894809133049091340431
:100BC000A0913504B09136040196A11DB11D80930A
:100BD000330490933404A0933504B093360478948E
:100BE0000E94D905E8CF80913204813039F4809198
:100BF00049048F3F19F08F5F8093490408958091D5
:100C00003204813009F04CC0F89480914904882363
:100C100019F08150809349048091490481113FC0AB
:100C20008091310481113BC0E0914404F0E0EF5F1A
:100C3000FE4FE081E0934804AE2FB0E0AB5BBB4FCA
:100C4000AC91B0E0AF5FBE4FEE0FEE0FEE0F8C91A8
:100C5000E80FE093370480913804E81701F1F0E0E1
:100C6000EE0FFF1FE557FA4F808191819093430467
:100C70008093420480913B0490913C04A0913D04F8
:100C8000B0913E040196A11DB11D80933B04909349
:100C90003C04A0933D04B0933E040E94F604789473
:100CA000089580913204813049F4F89480913104A0
:100CB0008F3F19F08F5F809331047894089580916D
:100CC0003204811128C0E0914404F0E0EF5FFE4F50
:100CD000E081AE2FB0E0AB5BBB4FAC91B0E0AF5F5B
:100CE000BE4FEE0FEE0FEE0F8C91E80FE09337043E
:100CF000E0933804F0E0EE0FFF1FE557FA4F8081D4
:100D00009181909343048093420490934B04809389
:100D10004A040C94690408950E94D6058091320417
:100D2000E0913904F0913A0421E030E0813001F1A2
:100D30000895F894868197810097B1F00197978381
:100D40008683892B89F4808583FD16C080914404B5
:100D50009585892B80934404A385B0E0AB5BBB4FA2
:100D60008C919485892B8C930280F381E02D78946B
:100D700081858031F1F6DCCF37832683F5CF8CEF88
:100D800090E008950895F8948091490481113DC040
:100D900080913104811139C0E0914404F0E0EF5FAB
:100DA000FE4FE081AE2FB0E0AB5BBB4FAC91B0E04B
:100DB000AF5FBE4FEE0FEE0FEE0F8C91E80FE0939A
:100DC000370480913804E81701F1F0E0EE0FFF1FBF
:100DD000E557FA4F808191819093430480934204B8
:100DE00080913B0490913C04A0913D04B0913E045D
:100DF0000196A11DB11D80933B0490933C04A093E8
:100E00003D04B0933E040E94990478940895809123
:100E10003204813091F4F89480913104882361F098
:100E2000815080933104811107C080914904811160
:100E300003C078940C94C30678940895AC01F89498
:100E4000A0914A04B0914B041B96EC911B97F0E0E3
:100E50001C969C911C979095EB5BFB4F808198238F
:100E6000908391110AC01D969C911D97292F209562
:100E70009091440492239093440417965C934E936C
:100E8000169778940C94C3061F93CF93DF93F8942E
:100E9000C0913F04D0914004209709F454C0182F0A
:100EA0008A819B819093400480933F047894798356
:100EB0006883198718861F821E821E86E12FE69599
:100EC000E695E695EB87F0E0EF5FFD4F80818D873B
:100ED000E12FE770EA87F0E0EF5FFD4F80818C87BC
:100EE000CE010E94DA05CE010E94D205F894E12FCE
:100EF000F0E0EE0FFF1FE557FA4FD183C083E0917A
:100F00003904F0913A04FB83EA831D821C823097F6
:100F100011F0D583C483D0933A04C09339048091EF
:100F200044049D85892B80934404EB85F0E0EB5BC2
:100F3000FB4F80819C85892B8083789480E0DF91B2
:100F4000CF911F910895789486E4F9CF9F92AF9244
:100F5000BF92CF92DF92EF92FF920F931F93CF93A6
:100F6000DF93F894C22FD0E0CC0FDD1FC557DA4FC6
:100F7000E881F981EF2B09F03BC0922E21E030E0AF
:100F800039832883789430E020E00E948805B12CD2
:100F9000A12CD12CC12CE12CF12C870130E020E0D8
:100FA00050E040E0BC01892D0E944407182F8111B8
:100FB0001AC0F894809141048F5F80934104789423
:100FC00080913204813011F40E94C306812FDF9199
:100FD000CF911F910F91FF90EF90DF90CF90BF9036
:100FE000AF909F900895F894198218827894EECF6C
:100FF000789418E2EBCF0E94D70510924904109222
:101000003104109241041092320410923B04109269
:101010003C0410923D0410923E041092330410924E
:101020003404109235041092360410924404109245
:10103000450410924604109247041092380410920E
:101040003704109243041092420410924B04109201
:101050004A0410923A0410923904EBE8F5E0119238
:10106000119285E0ED3AF807D1F7ECE8F4E0CF0112
:101070000F9693838283FC0185E0EC37F807B9F77C
:1010800010927F0510927E058CE894E090934004C6
:1010900080933F0420E14BE854E070E060E08BED8A
:1010A00095E00E94A6070C94D805FF920F931F931A
:1010B000CF93DF93F0904904F11076C0F8948F3FFE
:1010C00029F4E0914A04F0914B048185082F10E047
:1010D000000F111FF801E557FA4FC081D181209709
:1010E00009F45EC0EB85F0E08C858095EB5BFB4FEF
:1010F000908189238083811108C08D85982F9095D8
:10110000809144048923809344041F821E821886A0
:10111000809131048F3F19F08F5F80933104789470
:10112000F89480913104882319F081508093310420
:10113000CE010E94D30580914104815080934104E7
:10114000F801E557FA4F11821082EC81FD81AA81E6
:10115000BB813097E1F415961C921E921497B093C0
:101160003A04A093390480913F04909140049B83FA
:101170008A83D0934004C0933F0478940E94C306AE
:101180008F2DDF91CF911F910F91FF900895B38321
:10119000A283AA81BB811596FC93EE931497E3CFAB
:1011A00078949CE3F92EECCF8FE3F82EE9CF8F3FB4
:1011B00041F4F894E0914A04F0914B0486857894C8
:1011C0000895F894E82FF0E0EE0FFF1FE557FA4F6F
:1011D0000190F081E02D8BE0309789F38EE38687D4
:1011E00080E0EDCF009711F00C941E070895CF9288
:1011F000DF92EF92FF9281110DC061110BC041117E
:101200000CC02115310561F484E5FF90EF90DF906B
:10121000CF9008956C3308F04FC04C3308F04EC0A7
:10122000283E93E0390708F04BC0F901582F262FCC
:1012300030E0ACE3B0E00E94DA096B017C01C40E3F
:10124000D11CE11CF11C252F30E0A0E1BEE00E9482
:10125000DA09A7019601260F371F481F591FA4E678
:10126000B0E00E94E9096B017C019F010E94DA094C
:101270006C507E4F8F4F9F4F28EE33E040E050E0A0
:101280000E94B209D701C601820F931FA41FB51F88
:101290007D010E94F208E114F10411F480E0B5CF61
:1012A00080E090E80E941E0780E090E80E941E0700
:1012B00081E0E81AF108EFCF81E5A7CF82E5A5CF5D
:1012C00083E5A3CF0E94AD030E94FB0770E060E0BE
:1012D00090E080E00E94D0021092A3021092A2023D
:1012E0001092A5021092A4021092A6021092280356
:1012F0001092270321E048EA53E070E060E089EDB6
:1013000091E00E94A6070E9473030E9499030E9425
:101310005F06FFCFAA1BBB1B51E107C0AA1FBB1F63
:10132000A617B70710F0A61BB70B881F991F5A9571
:10133000A9F780959095BC01CD01089597FB072EE4
:1013400016F4009407D077FD09D00E948A0907FCA3
:1013500005D03EF4909581959F4F089570956195C5
:101360007F4F0895A1E21A2EAA1BBB1BFD010DC0E1
:10137000AA1FBB1FEE1FFF1FA217B307E407F50745
:1013800020F0A21BB30BE40BF50B661F771F881F21
:10139000991F1A9469F760957095809590959B01B7
:1013A000AC01BD01CF010895EE0FFF1F0590F49130
:1013B000E02D0994A29FB001B39FC001A39F700DBF
:1013C000811D1124911DB29F700D811D1124911D4D
:1013D00008950E94DA09A59F900DB49F900DA49FD7
:0C13E000800D911D11240895F894FFCF9A
:1013EC0001000001000200010003000100020001E5
:1013FC0000040001000200010003000100020001D2
:10140C0000050001000200010003000100020001C0
:10141C0000040001000200010003000100020001B1
:10142C00000600010002000100030001000200019F
:10143C000004000100020001000300010002000191
:10144C000005000100020001000300010002000180
:10145C000004000100020001000300010002000171
:10146C00000700010002000100030001000200015E
:10147C000004000100020001000300010002000151
:10148C000005000100020001000300010002000140
:10149C000004000100020001000300010002000131
:1014AC00000600010002000100030001000200011F
:1014BC000004000100020001000300010002000111
:1014CC000005000100020001000300010002000100
:1014DC0000040001000200010003000100020001F1
:1014EC00000102040810204080303132333435368C
:1014FC00373839414243444546002564200A0000F0
:00000001FF
