:100000000C9434000C9451000C9451000C94510049
:100010000C9451000C9451000C9451000C9451001C
:100020000C9451000C9451000C9451000C9451000C
:100030000C9451000C9451000C9451000C945100FC
:100040000C9444040C9451000C9451000C945100F5
:100050000C9451000C9451000C9451000C945100DC
:100060000C9451000C94510011241FBECFEFD8E026
:10007000DEBFCDBF12E0A0E0B1E0EEE0F2E102C0F1
:1000800005900D92AA31B107D9F725E0AAE1B2E0B7
:1000900001C01D92A33AB207E1F70E947D080C94BB
:1000A00005090C940000C1E00E944602019751F43A
:1000B000C0939E0224E630E040E060E080E00E94D1
:1000C0001208F2CF10929E02F5CF60919A027091C1
:1000D0009B0280919C0290919D020E94EB012AEF6D
:1000E00030E040E060E080E00E941208EECFC7E31D
:1000F000D0E00DED1FEF80E5E82EF12C93E2C92E44
:10010000D12C80919E02813049F510939B0200937F
:100110009A0210939D0200939C020E94690202972A
:1001200031F5D0939B02C0939A02D0939D02C09365
:100130009C020E945202CD970CF453C010939B0274
:1001400000939A02D0929D02C0929C0222E330E07A
:1001500040E060E080E00E941208D3CFD0939B0281
:10016000C0939A02D0939D02C0939C02D6CF0E9466
:1001700069020797B1F20E946902019729F410936E
:100180009B0200939A02D1CF0E946902049749F41E
:10019000D0939B02C0939A0210939D0200939C02FD
:1001A000C8CF0E946902039749F4D0939B02C09381
:1001B0009A02F0929D02E0929C02BBCF0E946902DB
:1001C000069729F4F0929B02E0929A02AECF0E9429
:1001D0006902892B09F0ADCF10939B0200939A021C
:1001E000DBCFD0939B02C0939A02D0939D02C09321
:1001F0009C02ACCF0E94B90222E049E952E070E0D3
:1002000060E083E590E00E94C10623E04EE153E008
:1002100070E060E085E690E00E94C10624E04EE1D7
:1002200054E070E060E087E790E00E94C106C1E022
:1002300030E020E045E060E080E00E94120885B1F7
:100240008C2785B9F5CF80E480937C0086E8809385
:100250007A000895F894806480937C0080917A00FD
:10026000806480937A0080917A0084FFFCCF809133
:100270007A00806180937A007894809178009091E0
:10028000790093700895811105C07093890060937F
:100290008800089570938B0060938A0008958AB156
:1002A000806F8AB98BB18F708BB981EA809380009F
:1002B00083E0809381001092850010928400109258
:1002C0008900A8E8B0E01C9210928B00EAE8F0E008
:1002D000108284B1866084B911961C921E9211829C
:1002E0001082089577FF02C070E060E06536710506
:1002F00014F064E670E09B01220F331F759567953B
:10030000620F731F811109C070938B0060938A0084
:100310007093200460931F04089570938900609384
:10032000880070932404609323040895CF93C62F0C
:10033000262F30E081112BC080912104909122045E
:100340008217930759F070E060E080E00E9472012C
:100350008FE99FE00197F1F700C00000C1110EC0C6
:100360005E985F9A10922204109221048FE39CE918
:100370000197F1F700C00000CF9108955E9A5F9851
:1003800081E090E09093220480932104EFCF80914C
:100390002504909126048217930759F070E060E0DD
:1003A00081E00E9472018FE99FE00197F1F700C0A0
:1003B0000000C11107C05C9A5D981092260410924B
:1003C0002504D4CF5C985D9A81E090E09093260458
:1003D00080932504CBCF0F931F93CF93DF93EC0132
:1003E0008B0197FF1CC061E081E00E949601D195CE
:1003F000C195D10917FF18C061E080E00E94960105
:10040000119501951109B80180E00E947201BE01A9
:1004100081E0DF91CF911F910F910C94720160E008
:1004200081E00E949601E6CF60E080E00E949601A4
:10043000EACF8093C4001092C5001092C00088E1FA
:100440008093C10086E08093C20008959091C0001F
:1004500095FFFCCF8093C6000895CF938091C00094
:1004600087FFFCCFC091C6008C2F0E9426028C2FE4
:10047000CF910895CF93DF93EC018991811103C04F
:10048000DF91CF9108950E942602F7CF80E00E946D
:100490002A0121E030E08436910510F030E020E0C0
:1004A000C901089584E00E942A012BEFAC012403C6
:1004B000C001259F900D112485509C4E63E370E090
:1004C0000E94B508CB016536710514F084E690E012
:1004D0000895CF93DF93C0E0D1E0CC0F8D2F0E9421
:1004E0002A018C3291400CF4C160DF5FD430A9F74F
:1004F0008C2F90E0DF91CF91089583B182958F701A
:1005000091E08927817090E0089583B18695869562
:10051000869591E08927817090E008955B9A2FEF8E
:1005200085EA9EE0215080409040E1F700C0000045
:100530005B982FEF85EA9EE0215080409040E1F7E4
:1005400000C00000089585E00E942A01843F914088
:1005500010F4289A08952898089589B182FB882775
:1005600080F991E0892708950E94AD028823E1F384
:100570000895F89485E085BD81E080936E0084E65F
:1005800086BD7894089587E60E9419020C94230191
:100590000E94C3020E944F01539A5B98209A52987E
:1005A0005A9A2498239885B1886185B960E080E0E3
:1005B0000E94960160E081E00E94960170E060E098
:1005C00090E080E00C94EB014F925F926F927F92EB
:1005D0008F929F92AF92BF92CF92DF92EF92FF9253
:1005E0000F931F93CF93DF93CDB7DEB7DE01539602
:1005F000ED91FD918D015AE0652E712C808185323F
:1006000081F45F0182E0A80EB11C8181843609F477
:1006100050C090F4833661F4F80180810E5F1F4F63
:1006200007C0882309F45DC05F019FEFA91AB90ACA
:100630000E942602F501E2CF833771F130E1832E6B
:10064000912CE12C40E1F42E883791F7F801C0801D
:10065000D1800E5F1F4F843659F4D7FE06C0D19467
:10066000C194D1088DE20E942602CE14DF0448F125
:10067000C601B7010E94A1082C01685F7D4FFB01F4
:1006800080810E9426026201C701B4010E94A10874
:100690007B01672B69F7CECFF801E080F1800E5F18
:1006A0001F4FF70181917F01882321F20E942602CA
:1006B000F8CF9AE0892E912C20E1E22E27E2F22E4B
:1006C000C5CFC701B3010E94A1087B01623071054B
:1006D00060F6C6010E94A108FB01E85FFD4F808122
:1006E000A7CF90E080E0DF91CF911F910F91FF9015
:1006F000EF90DF90CF90BF90AF909F908F907F90C2
:100700006F905F904F900895009128040395009397
:100710002804E0913804F0913904C191CDBFD19102
:10072000DEBF0F910FBFFF91EF91DF91CF91BF918E
:10073000AF919F918F917F916F915F914F913F9179
:100740002F911F910F91FF90EF90DF90CF90BF906E
:10075000AF909F908F907F906F905F904F903F9061
:100760002F901F900F9008950F921F922F923F92FB
:100770004F925F926F927F928F929F92AF92BF92B1
:10078000CF92DF92EF92FF920F931F932F933F939D
:100790004F935F936F937F938F939F93AF93BF9389
:1007A000CF93DF93EF93FF930FB70F93E091400444
:1007B000F0914104CDB7C193DEB7D19300912D04E0
:1007C00000932E04E0913804F0913904E093400442
:1007D000F0934104C191CDBFD191DEBF0F910FBF06
:1007E000FF91EF91DF91CF91BF91AF919F918F9149
:1007F0007F916F915F914F913F912F911F910F9139
:10080000FF90EF90DF90CF90BF90AF909F908F9030
:100810007F906F905F904F903F902F901F900F9020
:10082000089500912D0400932E04E0913804F09176
:100830003904E0934004F0934104C191CDBFD191BC
:10084000DEBF0F910FBFFF91EF91DF91CF91BF916D
:10085000AF919F918F917F916F915F914F913F9158
:100860002F911F910F91FF90EF90DF90CF90BF904D
:10087000AF909F908F907F906F905F904F903F9040
:100880002F901F900F9008950F921F922F923F92DA
:100890004F925F926F927F928F929F92AF92BF9290
:1008A000CF92DF92EF92FF920F931F932F933F937C
:1008B0004F935F936F937F938F939F93AF93BF9368
:1008C000CF93DF93EF93FF930FB700680F930091DF
:1008D0003F04039500933F04013041F4CDB7DEB7E8
:1008E000E0914004F0914104C193D19304E606BD28
:1008F000F0E01F2E78940E94A70500000E941A05C0
:100900000F910FBFFF91EF91DF91CF91BF91AF9109
:100910009F918F917F916F915F914F913F912F9117
:100920001F910F91FF90EF90DF90CF90BF90AF900D
:100930009F908F907F906F905F904F903F902F90FF
:100940001F900F900895FA0180833197908331971B
:10095000108231971082319710823197108231972F
:10096000108231971082319710823197108231971F
:10097000108231971082319710823197108231970F
:1009800010823197108231971082319710823197FF
:1009900010823197108231971082319710823197EF
:1009A00010823197108231971082319710823197DF
:1009B000608331977083319710823197108231971D
:1009C00010823197108231971082319710823197BF
:1009D00080E88083CA018397089508950895089553
:1009E000089508950895089508950895F8948091BC
:1009F000290490912A04A0912B04B0912C04019613
:100A0000A11DB11D8093290490932A04A0932B0467
:100A1000B0932C0478940E94F404E8CF80912804C9
:100A2000813039F480913F048F3F19F08F5F8093BC
:100A30003F04089580912804813009F04CC0F89457
:100A400080913F04882319F0815080933F04809166
:100A50003F0481113FC08091270481113BC0E09188
:100A60003A04F0E0E050FF4FE081E0933E04AE2F07
:100A7000B0E0A55CBB4FAC91B0E0A050BF4FEE0F13
:100A8000EE0FEE0F8C91E80FE0932D0480912E0471
:100A9000E81701F1F0E0EE0FFF1FEF57FA4F8081EA
:100AA000918190933904809338048091310490911E
:100AB0003204A0913304B09134040196A11DB11DFC
:100AC0008093310490933204A0933304B0933404A0
:100AD0000E9411047894089580912804813049F48B
:100AE000F894809127048F3F19F08F5F809327043B
:100AF0007894089580912804811128C0E0913A04E7
:100B0000F0E0E050FF4FE081AE2FB0E0A55CBB4FBE
:100B1000AC91B0E0A050BF4FEE0FEE0FEE0F8C91F6
:100B2000E80FE0932D04E0932E04F0E0EE0FFF1F9A
:100B3000EF57FA4F80819181909339048093380464
:100B400090934104809340040C94840308950E9480
:100B5000F10480912804E0912F04F091300421E009
:100B600030E0813001F10895F894868197810097F3
:100B7000B1F0019797838683892B89F4808583FD63
:100B800016C080913A049585892B80933A04A385F9
:100B9000B0E0A55CBB4F8C919485892B8C9302802F
:100BA000F381E02D789481858031F1F6DCCF3783B5
:100BB0002683F5CF8CEF90E008950895F894809106
:100BC0003F0481113DC080912704811139C0E0911B
:100BD0003A04F0E0E050FF4FE081AE2FB0E0A55CBA
:100BE000BB4FAC91B0E0A050BF4FEE0FEE0FEE0F39
:100BF0008C91E80FE0932D0480912E04E81701F109
:100C0000F0E0EE0FFF1FEF57FA4F80819181909334
:100C10003904809338048091310490913204A0917A
:100C20003304B09134040196A11DB11D80933104A9
:100C300090933204A0933304B09334040E94B4031D
:100C40007894089580912804813091F4F8948091EB
:100C50002704882361F0815080932704811107C005
:100C600080913F04811103C078940C94DE05789440
:100C70000895AC01F894A0914004B09141041B96F2
:100C8000EC911B97F0E01C969C911C979095E55C6D
:100C9000FB4F80819823908391110AC01D969C91EF
:100CA0001D97292F209590913A04922390933A040E
:100CB00017965C934E93169778940C94DE051F93C9
:100CC000CF93DF93F894C0913504D09136042097E8
:100CD00009F454C0182F8A819B8190933604809325
:100CE0003504789479836883198718861F821E8259
:100CF0001E86E12FE695E695E695EB87F0E0E0505D
:100D0000FE4F80818D87E12FE770EA87F0E0E050A9
:100D1000FE4F80818C87CE010E94F504CE010E9497
:100D2000ED04F894E12FF0E0EE0FFF1FEF57FA4FBC
:100D3000D183C083E0912F04F0913004FB83EA83D8
:100D40001D821C82309711F0D583C483D093300468
:100D5000C0932F0480913A049D85892B80933A0497
:100D6000EB85F0E0E55CFB4F80819C85892B8083DF
:100D7000789480E0DF91CF911F910895789486E474
:100D8000F9CF9F92AF92BF92CF92DF92EF92FF92F4
:100D90000F931F93CF93DF93F894C22FD0E0CC0F23
:100DA000DD1FCF57DA4FE881F981EF2B09F03BC007
:100DB000922E21E030E039832883789430E020E0DF
:100DC0000E94A304B12CA12CD12CC12CE12CF12C1C
:100DD000870130E020E050E040E0BC01892D0E9416
:100DE0005F06182F81111AC0F894809137048F5F25
:100DF00080933704789480912804813011F40E9404
:100E0000DE05812FDF91CF911F910F91FF90EF9021
:100E1000DF90CF90BF90AF909F900895F894198283
:100E200018827894EECF789418E2EBCF0E94F20407
:100E300010923F0410922704109237041092280455
:100E40001092310410923204109233041092340440
:100E50001092290410922A0410922B0410922C0450
:100E600010923A0410923B0410923C0410923D04FC
:100E700010922E0410922D0410923904109238040E
:100E800010924104109240041092300410922F04EA
:100E9000E1E8F5E01192119285E0E33AF807D1F725
:100EA000E2E8F4E0CF010F9693838283FC0185E0B2
:100EB000E237F807B9F7109275051092740582E8C9
:100EC00094E0909336048093350420E141E854E0A7
:100ED00070E060E086EF94E00E94C1060C94F30499
:100EE000FF920F931F93CF93DF93F0903F04F11085
:100EF00076C0F8948F3F29F4E0914004F0914104CA
:100F00008185082F10E0000F111FF801EF57FA4FED
:100F1000C081D181209709F45EC0EB85F0E08C851B
:100F20008095E55CFB4F908189238083811108C007
:100F30008D85982F909580913A04892380933A0467
:100F40001F821E821886809127048F3F19F08F5FC1
:100F5000809327047894F89480912704882319F0CB
:100F6000815080932704CE010E94EE0480913704C3
:100F7000815080933704F801EF57FA4F11821082A5
:100F8000EC81FD81AA81BB813097E1F415961C921A
:100F90001E921497B0933004A0932F0480913504CF
:100FA000909136049B838A83D0933604C093350492
:100FB00078940E94DE058F2DDF91CF911F910F91C4
:100FC000FF900895B383A283AA81BB811596FC93F9
:100FD000EE931497E3CF78949CE3F92EECCF8FE354
:100FE000F82EE9CF8F3F41F4F894E0914004F0915E
:100FF0004104868578940895F894E82FF0E0EE0F88
:10100000FF1FEF57FA4F0190F081E02D8BE03097F2
:1010100089F38EE3868780E0EDCF009711F00C9482
:1010200039060895CF92DF92EF92FF9281110DC0A1
:1010300061110BC041110CC02115310561F484E52B
:10104000FF90EF90DF90CF9008956C3308F04FC081
:101050004C3308F04EC0283E93E0390708F04BC0EF
:10106000F901582F262F30E0ACE3B0E00E94EB08E6
:101070006B017C01C40ED11CE11CF11C252F30E05A
:10108000A0E1BEE00E94EB08A7019601260F371FE2
:10109000481F591FA4E6B0E00E94FA086B017C01CA
:1010A0009F010E94EB086C507E4F8F4F9F4F28EEA0
:1010B00033E040E050E00E94C908D701C601820F2A
:1010C000931FA41FB51F7D010E940D08E114F104B8
:1010D00011F480E0B5CF80E090E80E94390680E00E
:1010E00090E80E94390681E0E81AF108EFCF81E527
:1010F000A7CF82E5A5CF83E5A3CF0E94C8020E94B7
:10110000160770E060E090E080E00E94EB01109232
:101110009B0210929A0210929D0210929C021092D1
:101120009E0221E04EE953E070E060E08AEF90E03B
:101130000E94C1060E948E020E94B4020E947A059B
:10114000FFCFAA1BBB1B51E107C0AA1FBB1FA617DD
:10115000B70710F0A61BB70B881F991F5A95A9F760
:1011600080959095BC01CD01089597FB072E16F44C
:10117000009407D077FD09D00E94A10807FC05D094
:101180003EF4909581959F4F0895709561957F4F9E
:101190000895A1E21A2EAA1BBB1BFD010DC0AA1FB8
:1011A000BB1FEE1FFF1FA217B307E407F50720F0D0
:1011B000A21BB30BE40BF50B661F771F881F991F4B
:1011C0001A9469F760957095809590959B01AC0194
:1011D000BD01CF010895A29FB001B39FC001A39F9D
:1011E000700D811D1124911DB29F700D811D112460
:1011F000911D08950E94EB08A59F900DB49F900D3E
:0E120000A49F800D911D11240895F894FFCF36
:10120E0000000100020001000300010002000100C5
:10121E0004000100020001000300010002000100B1
:10122E0005000100020001000300010002000100A0
:10123E000400010002000100030001000200010091
:10124E00060001000200010003000100020001007F
:10125E000400010002000100030001000200010071
:10126E000500010002000100030001000200010060
:10127E000400010002000100030001000200010051
:10128E00070001000200010003000100020001003E
:10129E000400010002000100030001000200010031
:1012AE000500010002000100030001000200010020
:1012BE000400010002000100030001000200010011
:1012CE0006000100020001000300010002000100FF
:1012DE0004000100020001000300010002000100F1
:1012EE0005000100020001000300010002000100E0
:1012FE0004000100020001000300010002000100D1
:10130E000102040810204080303132333435363734
:0A131E0038394142434445460000BF
:00000001FF
