:100000000C9434000C9451000C9451000C94510049
:100010000C9451000C9451000C9451000C9451001C
:100020000C9451000C9451000C9451000C9451000C
:100030000C9451000C9451000C9451000C945100FC
:100040000C943A040C9451000C9451000C945100FF
:100050000C9451000C9451000C9451000C945100DC
:100060000C9451000C94510011241FBECFEFD8E026
:10007000DEBFCDBF12E0A0E0B1E0EAEFF1E102C0E7
:1000800005900D92AA31B107D9F725E0AAE1B2E0B7
:1000900001C01D92A33AB207E1F70E9473080C94C5
:1000A000FB080C940000C1E00E943C02019751F44F
:1000B000C0939E0224E630E040E060E080E00E94D1
:1000C0000808F2CF10929E02F5CF60919A027091CB
:1000D0009B0280919C0290919D020E94E1012AE086
:1000E00030E040E060E080E00E940808EECF0DEDD7
:1000F0001FEF83E2E82EF12CC7E3D0E099ECC92E84
:10010000DD24DA9480919E02813081F410939B0269
:1001100000939A0210939D0200939C022AE030E023
:1001200040E060E080E00E940808ECCF0E945F029F
:10013000029749F4D0939B02C0939A02D0939D02F8
:10014000C0939C020CC00E945F020497B1F4D0934C
:100150009B02C0939A02D0929D02C0929C020E9480
:10016000480281359105D4F210939B0200939A02C4
:10017000F0929D02E0929C02D1CF0E945F02019713
:1001800029F4D0929B02C0929A02D8CF0E945F02BB
:10019000069749F4D0939B02C0939A02F0929D0275
:1001A000E0929C02DCCF0E945F02039729F4F09258
:1001B0009B02E0929A02C2CF0E945F02892B09F053
:1001C000B9CF10939B0200939A0210929D02109255
:1001D0009C02C5CFCF93DF9300D0CDB7DEB70E948E
:1001E000AF0222E049E952E070E060E083E590E090
:1001F0000E94B70623E04EE153E070E060E085E640
:1002000090E00E94B70624E04EE154E0BE016F5F2B
:100210007F4F87E790E00E94B70611E030E020E0D2
:1002200045E060E080E00E94080885B1812785B93B
:10023000F5CF80E480937C0086E880937A0008956F
:10024000F894806480937C0080917A00806480932D
:100250007A0080917A0084FFFCCF80917A008061DF
:1002600080937A00789480917800909179009370CF
:100270000895811105C070938900609388000895E6
:1002800070938B0060938A0008958AB1806F8AB959
:100290008BB18F708BB981EA8093800083E080936B
:1002A0008100109285001092840010928900A8E8C5
:1002B000B0E01C9210928B00EAE8F0E0108284B16A
:1002C000866084B911961C921E9211821082089544
:1002D00077FF02C070E060E06536710514F064E6F7
:1002E00070E09B01220F331F75956795620F731F96
:1002F000811109C070938B0060938A007093200471
:1003000060931F0408957093890060938800709330
:100310002404609323040895CF93C62F262F30E042
:1003200081112BC0809121049091220482179307A0
:1003300059F070E060E080E00E9468018FE99FE082
:100340000197F1F700C00000C1110EC05E985F9ADE
:1003500010922204109221048FE39CE90197F1F797
:1003600000C00000CF9108955E9A5F9881E090E010
:100370009093220480932104EFCF809125049091E3
:1003800026048217930759F070E060E081E00E9434
:1003900068018FE99FE00197F1F700C00000C111EB
:1003A00007C05C9A5D981092260410922504D4CF61
:1003B0005C985D9A81E090E09093260480932504F8
:1003C000CBCF0F931F93CF93DF93EC018B0197FF5C
:1003D0001CC061E081E00E948C01D195C195D109DA
:1003E00017FF18C061E080E00E948C011195019513
:1003F0001109B80180E00E946801BE0181E0DF912F
:10040000CF911F910F910C94680160E081E00E94F0
:100410008C01E6CF60E080E00E948C01EACF8093FF
:10042000C4001092C5001092C00088E18093C10002
:1004300086E08093C20008959091C00095FFFCCFA4
:100440008093C6000895CF938091C00087FFFCCFB2
:10045000C091C6008C2F0E941C028C2FCF91089552
:10046000CF93DF93EC018991811103C0DF91CF918C
:1004700008950E941C02F7CF80E00E94200121E035
:1004800030E08436910510F030E020E0C901089595
:1004900084E00E9420012BEFAC012403C001259FC2
:1004A000900D112485509C4E63E370E00E94AB08D0
:1004B000CB016536710514F084E690E00895CF9382
:1004C000DF93C0E0D1E0CC0F8D2F0E9420018C3251
:1004D00091400CF4C160DF5FD430A9F78C2F90E01D
:1004E000DF91CF91089583B182958F7091E0892734
:1004F000817090E0089583B186958695869591E008
:100500008927817090E008955B9A2FEF85EA9EE03D
:10051000215080409040E1F700C000005B982FEF31
:1005200085EA9EE0215080409040E1F700C0000045
:10053000089585E00E942001843F914010F4289A9C
:1005400008952898089589B182FB882780F991E061
:10055000892708950E94A3028823E1F30895F8945F
:1005600085E085BD81E080936E0084E686BD789449
:10057000089587E60E940F020C9419010E94B902A7
:100580000E944501539A5B98209A52985A9A24984F
:10059000239885B1886185B960E080E00E948C0174
:1005A00060E081E00E948C0170E060E090E080E01B
:1005B0000C94E1014F925F926F927F928F929F9283
:1005C000AF92BF92CF92DF92EF92FF920F931F9361
:1005D000CF93DF93CDB7DEB7DE015396ED91FD915A
:1005E0008D015AE0652E712C8081853281F45F0186
:1005F00082E0A80EB11C8181843609F450C090F4C9
:10060000833661F4F80180810E5F1F4F07C0882395
:1006100009F45DC05F019FEFA91AB90A0E941C028C
:10062000F501E2CF833771F130E1832E912CE12C7B
:1006300040E1F42E883791F7F801C080D1800E5F39
:100640001F4F843659F4D7FE06C0D194C194D10807
:100650008DE20E941C02CE14DF0448F1C601B701EE
:100660000E9497082C01685F7D4FFB0180810E94EA
:100670001C026201C701B4010E9497087B01672B2D
:1006800069F7CECFF801E080F1800E5F1F4FF701D0
:1006900081917F01882321F20E941C02F8CF9AE009
:1006A000892E912C20E1E22E27E2F22EC5CFC70140
:1006B000B3010E9497087B016230710560F6C601A4
:1006C0000E949708FB01E85FFD4F8081A7CF90E073
:1006D00080E0DF91CF911F910F91FF90EF90DF901D
:1006E000CF90BF90AF909F908F907F906F905F90D2
:1006F0004F90089500912804039500932804E091F9
:100700003804F0913904C191CDBFD191DEBF0F9172
:100710000FBFFF91EF91DF91CF91BF91AF919F916B
:100720008F917F916F915F914F913F912F911F9189
:100730000F91FF90EF90DF90CF90BF90AF909F9080
:100740008F907F906F905F904F903F902F901F9071
:100750000F9008950F921F922F923F924F925F92A7
:100760006F927F928F929F92AF92BF92CF92DF92C1
:10077000EF92FF920F931F932F933F934F935F93AB
:100780006F937F938F939F93AF93BF93CF93DF9399
:10079000EF93FF930FB70F93E0914004F091410462
:1007A000CDB7C193DEB7D19300912D0400932E04F1
:1007B000E0913804F0913904E0934004F09341044F
:1007C000C191CDBFD191DEBF0F910FBFFF91EF91CE
:1007D000DF91CF91BF91AF919F918F917F916F9159
:1007E0005F914F913F912F911F910F91FF90EF904B
:1007F000DF90CF90BF90AF909F908F907F906F9041
:100800005F904F903F902F901F900F900895009110
:100810002D0400932E04E0913804F0913904E09304
:100820004004F0934104C191CDBFD191DEBF0F913F
:100830000FBFFF91EF91DF91CF91BF91AF919F914A
:100840008F917F916F915F914F913F912F911F9168
:100850000F91FF90EF90DF90CF90BF90AF909F905F
:100860008F907F906F905F904F903F902F901F9050
:100870000F9008950F921F922F923F924F925F9286
:100880006F927F928F929F92AF92BF92CF92DF92A0
:10089000EF92FF920F931F932F933F934F935F938A
:1008A0006F937F938F939F93AF93BF93CF93DF9378
:1008B000EF93FF930FB700680F9300913F040395E8
:1008C00000933F04013041F4CDB7DEB7E09140041E
:1008D000F0914104C193D19304E606BDF0E01F2ED0
:1008E00078940E949D0500000E9410050F910FBF93
:1008F000FF91EF91DF91CF91BF91AF919F918F9138
:100900007F916F915F914F913F912F911F910F9127
:10091000FF90EF90DF90CF90BF90AF909F908F901F
:100920007F906F905F904F903F902F901F900F900F
:100930000895FA018083319790833197108231971F
:10094000108231971082319710823197108231973F
:10095000108231971082319710823197108231972F
:10096000108231971082319710823197108231971F
:10097000108231971082319710823197108231970F
:1009800010823197108231971082319710823197FF
:10099000108231971082319710823197608331979E
:1009A000708331971082319710823197108231977E
:1009B00010823197108231971082319780E88083BE
:1009C000CA01839708950895089508950895089594
:1009D0000895089508950895F894809129049091B8
:1009E0002A04A0912B04B0912C040196A11DB11DE5
:1009F0008093290490932A04A0932B04B0932C0491
:100A000078940E94EA04E8CF80912804813039F478
:100A100080913F048F3F19F08F5F80933F040895CA
:100A200080912804813009F04CC0F89480913F04F3
:100A3000882319F0815080933F0480913F048111F5
:100A40003FC08091270481113BC0E0913A04F0E05F
:100A5000E050FF4FE081E0933E04AE2FB0E0A55C94
:100A6000BB4FAC91B0E0A050BF4FEE0FEE0FEE0FBA
:100A70008C91E80FE0932D0480912E04E81701F18A
:100A8000F0E0EE0FFF1FEF57FA4F808191819093B6
:100A90003904809338048091310490913204A091FC
:100AA0003304B09134040196A11DB11D809331042B
:100AB00090933204A0933304B09334040E9407044B
:100AC0007894089580912804813049F4F8948091B5
:100AD00027048F3F19F08F5F80932704789408953F
:100AE00080912804811128C0E0913A04F0E0E050A0
:100AF000FF4FE081AE2FB0E0A55CBB4FAC91B0E002
:100B0000A050BF4FEE0FEE0FEE0F8C91E80FE09369
:100B10002D04E0932E04F0E0EE0FFF1FEF57FA4F85
:100B2000808191819093390480933804909341049B
:100B3000809340040C947A0308950E94E704809106
:100B40002804E0912F04F091300421E030E081305E
:100B500001F10895F894868197810097B1F001978B
:100B600097838683892B89F4808583FD16C08091C5
:100B70003A049585892B80933A04A385B0E0A55C5F
:100B8000BB4F8C919485892B8C930280F381E02D4F
:100B9000789481858031F1F6DCCF37832683F5CFD9
:100BA0008CEF90E008950895F89480913F048111AE
:100BB0003DC080912704811139C0E0913A04F0E0F2
:100BC000E050FF4FE081AE2FB0E0A55CBB4FAC9191
:100BD000B0E0A050BF4FEE0FEE0FEE0F8C91E80F7C
:100BE000E0932D0480912E04E81701F1F0E0EE0F60
:100BF000FF1FEF57FA4F80819181909339048093C2
:100C000038048091310490913204A0913304B09162
:100C100034040196A11DB11D8093310490933204D8
:100C2000A0933304B09334040E94AA0378940895E7
:100C300080912804813091F4F894809127048823CE
:100C400061F0815080932704811107C080913F0497
:100C5000811103C078940C94D40578940895AC0164
:100C6000F894A0914004B09141041B96EC911B971D
:100C7000F0E01C969C911C979095E55CFB4F808161
:100C80009823908391110AC01D969C911D97292F3E
:100C9000209590913A04922390933A0417965C938E
:100CA0004E93169778940C94D4051F93CF93DF93AB
:100CB000F894C0913504D0913604209709F454C0BB
:100CC000182F8A819B819093360480933504789401
:100CD00079836883198718861F821E821E86E12FFA
:100CE000E695E695E695EB87F0E0E050FE4F8081D3
:100CF0008D87E12FE770EA87F0E0E050FE4F8081BA
:100D00008C87CE010E94EB04CE010E94E304F8948C
:100D1000E12FF0E0EE0FFF1FEF57FA4FD183C083B2
:100D2000E0912F04F0913004FB83EA831D821C8242
:100D3000309711F0D583C483D0933004C0932F042F
:100D400080913A049D85892B80933A04EB85F0E0ED
:100D5000E55CFB4F80819C85892B8083789480E0C3
:100D6000DF91CF911F910895789486E4F9CF9F92F7
:100D7000AF92BF92CF92DF92EF92FF920F931F93A9
:100D8000CF93DF93F894C22FD0E0CC0FDD1FCF5765
:100D9000DA4FE881F981EF2B09F03BC0922E21E078
:100DA00030E039832883789430E020E00E94990471
:100DB000B12CA12CD12CC12CE12CF12C870130E0DD
:100DC00020E050E040E0BC01892D0E945506182F1C
:100DD00081111AC0F894809137048F5F8093370493
:100DE000789480912804813011F40E94D405812FD9
:100DF000DF91CF911F910F91FF90EF90DF90CF90F7
:100E0000BF90AF909F900895F894198218827894BB
:100E1000EECF789418E2EBCF0E94E80410923F04E2
:100E20001092270410923704109228041092310473
:100E30001092320410923304109234041092290458
:100E400010922A0410922B0410922C0410923A044F
:100E500010923B0410923C0410923D0410922E0418
:100E600010922D041092390410923804109241040B
:100E7000109240041092300410922F04E1E8F5E043
:100E80001192119285E0E33AF807D1F7E2E8F4E035
:100E9000CF010F9693838283FC0185E0E237F80748
:100EA000B9F7109275051092740582E894E090935A
:100EB00036048093350420E141E854E070E060E0BE
:100EC0008CEE94E00E94B7060C94E904FF920F9315
:100ED0001F93CF93DF93F0903F04F11076C0F89406
:100EE0008F3F29F4E0914004F09141048185082F5F
:100EF00010E0000F111FF801EF57FA4FC081D181A8
:100F0000209709F45EC0EB85F0E08C858095E55C68
:100F1000FB4F908189238083811108C08D85982F94
:100F2000909580913A04892380933A041F821E820F
:100F30001886809127048F3F19F08F5F80932704D4
:100F40007894F89480912704882319F08150809335
:100F50002704CE010E94E4048091370481508093DD
:100F60003704F801EF57FA4F11821082EC81FD81AE
:100F7000AA81BB813097E1F415961C921E921497BA
:100F8000B0933004A0932F048091350490913604DF
:100F90009B838A83D0933604C093350478940E944F
:100FA000D4058F2DDF91CF911F910F91FF90089560
:100FB000B383A283AA81BB811596FC93EE93149709
:100FC000E3CF78949CE3F92EECCF8FE3F82EE9CFB2
:100FD0008F3F41F4F894E0914004F09141048685FC
:100FE00078940895F894E82FF0E0EE0FFF1FEF5784
:100FF000FA4F0190F081E02D8BE0309789F38EE37A
:10100000868780E0EDCF009711F00C942F060895AD
:10101000CF92DF92EF92FF9281110DC061110BC050
:1010200041110CC02115310561F484E5FF90EF906A
:10103000DF90CF9008956C3308F04FC04C3308F028
:101040004EC0283E93E0390708F04BC0F901582FF5
:10105000262F30E0ACE3B0E00E94E1086B017C0198
:10106000C40ED11CE11CF11C252F30E0A0E1BEE034
:101070000E94E108A7019601260F371F481F591F3C
:10108000A4E6B0E00E94F0086B017C019F010E9481
:10109000E1086C507E4F8F4F9F4F28EE33E040E0C9
:1010A00050E00E94BF08D701C601820F931FA41F02
:1010B000B51F7D010E940308E114F10411F480E0E2
:1010C000B5CF80E090E80E942F0680E090E80E9473
:1010D0002F0681E0E81AF108EFCF81E5A7CF82E57E
:1010E000A5CF83E5A3CF0E94BE020E940C0770E04B
:1010F00060E090E080E00E94E10110929B0210927B
:101100009A0210929D0210929C0210929E0221E07F
:101110004EE953E070E060E08AEE90E00E94B7068E
:101120000E9484020E94AA020E947005FFCFAA1B9F
:10113000BB1B51E107C0AA1FBB1FA617B70710F0C2
:10114000A61BB70B881F991F5A95A9F780959095F4
:10115000BC01CD01089597FB072E16F4009407D02B
:1011600077FD09D00E94970807FC05D03EF49095C2
:1011700081959F4F0895709561957F4F0895A1E2E5
:101180001A2EAA1BBB1BFD010DC0AA1FBB1FEE1F01
:10119000FF1FA217B307E407F50720F0A21BB30B4C
:1011A000E40BF50B661F771F881F991F1A9469F7C8
:1011B00060957095809590959B01AC01BD01CF0124
:1011C0000895A29FB001B39FC001A39F700D811D20
:1011D0001124911DB29F700D811D1124911D089540
:1011E0000E94E108A59F900DB49F900DA49F800DD3
:0A11F000911D11240895F894FFCF1B
:1011FA0000000100020001000300010002000100DA
:10120A0004000100020001000300010002000100C5
:10121A0005000100020001000300010002000100B4
:10122A0004000100020001000300010002000100A5
:10123A000600010002000100030001000200010093
:10124A000400010002000100030001000200010085
:10125A000500010002000100030001000200010074
:10126A000400010002000100030001000200010065
:10127A000700010002000100030001000200010052
:10128A000400010002000100030001000200010045
:10129A000500010002000100030001000200010034
:1012AA000400010002000100030001000200010025
:1012BA000600010002000100030001000200010013
:1012CA000400010002000100030001000200010005
:1012DA0005000100020001000300010002000100F4
:1012EA0004000100020001000300010002000100E5
:1012FA000102040810204080303132333435363749
:0A130A0038394142434445460000D3
:00000001FF
