:100000000C9434000C9451000C9451000C94510049
:100010000C9451000C9451000C9451000C9451001C
:100020000C9451000C9451000C9451000C9451000C
:100030000C9451000C9451000C9451000C945100FC
:100040000C9498040C9451000C9451000C945100A1
:100050000C9451000C9451000C9451000C945100DC
:100060000C9451000C94510011241FBECFEFD8E026
:10007000DEBFCDBF12E0A0E0B1E0EEEBF2E102C0E6
:1000800005900D92AA31B107D9F725E0AAE1B2E0B7
:1000900001C01D92A53AB207E1F70E94D1080C9465
:1000A0005D090C940000C1E00E949A02019751F48E
:1000B000C0939E0224E630E040E060E080E00E94D1
:1000C0006608F2CF10929E02F5CF60919A0270916D
:1000D0009B0280919C0290919D020E943F022AE027
:1000E00030E040E060E080E00E946608EECF06E489
:1000F00010E08CE3C82ED12CC0E5D0E09EECE92EB8
:10010000FF24FA9428EDA22EBB24BA9431E4232EC6
:10011000312C42EE442E55245A945CEE652E772401
:100120007A9463E2862E912C80919E02813091F523
:1001300070929B0260929A02D0939D02C0939C029F
:100140002AEF30E040E060E080E00E946608109313
:100150009B0200939A0210939D0200939C0230E050
:1001600020E041E060E080E00E9466080E94BD025D
:10017000892B41F490929B0280929A0290929D0268
:1001800080929C022AE030E040E060E080E00E9443
:100190006608CACF28980E94BD02029769F410929F
:1001A000200310921F0310939B0200939A02D09396
:1001B0009D02C0939C0210C00E94BD020497E1F40E
:1001C0001092200310921F03D0939B02C0939A02B7
:1001D000F0929D02E0929C020E94A6028135910558
:1001E0008CF210939B0200939A0282E390E090932A
:1001F0009D0280939C02C6CF0E94BD02019729F404
:10020000F0929B02E0929A02D2CF0E94BD02069722
:1002100049F430929B0220929A0250929D024092A1
:100220009C02DACF0E94BD02039749F4109220038A
:1002300010921F03B0929B02A0929A02B8CF0E9424
:10024000BD02892B49F4F0929B02E0929A02B0928F
:100250009D02A0929C02C0CF80910001882359F09A
:10026000D0939B02C0939A02D0929D02C0929C02AE
:1002700010920001B1CF289AD0929B02C0929A02AC
:10028000D0939D02C0939C0281E080930001A4CF93
:10029000CF93DF9300D0CDB7DEB70E940D0322E0ED
:1002A00049E952E070E060E083E590E00E941507C4
:1002B00023E04EE153E070E060E085E690E00E94CC
:1002C000150724E040E254E0BE016F5F7F4F87E7EF
:1002D00090E00E94150711E030E020E045E060E08A
:1002E00080E00E94660885B1812785B9F5CF80E45A
:1002F00080937C0086E880937A000895F894806467
:1003000080937C0080917A00806480937A00809151
:100310007A0084FFFCCF80917A00806180937A001C
:10032000789480917800909179009370089581116C
:1003300005C07093890060938800089570938B00C6
:1003400060938A0008958AB1806F8AB98BB18F70EB
:100350008BB981EA8093800083E0809381001092C2
:1003600085001092840010928900A8E8B0E01C92E9
:1003700010928B00EAE8F0E0108284B1866084B9C4
:1003800011961C921E9211821082089577FF02C06E
:1003900070E060E06536710514F064E670E09B0182
:1003A000220F331F75956795620F731F811109C066
:1003B00070938B0060938A007093220460932104F1
:1003C0000895709389006093880070932604609369
:1003D00025040895CF93C62F262F30E081112BC01E
:1003E00080912304909124048217930759F070E0C0
:1003F00060E080E00E94C6018FE99FE00197F1F77D
:1004000000C00000C1110EC05E985F9A10922404D3
:10041000109223048FE39CE90197F1F700C00000DC
:10042000CF9108955E9A5F9881E090E090932404C4
:1004300080932304EFCF80912704909128048217A2
:10044000930759F070E060E081E00E94C6018FE9F7
:100450009FE00197F1F700C00000C11107C05C9A4E
:100460005D981092280410922704D4CF5C985D9A6E
:1004700081E090E09093280480932704CBCF0F93E2
:100480001F93CF93DF93EC018B0197FF1CC061E0BA
:1004900081E00E94EA01D195C195D10917FF18C0EA
:1004A00061E080E00E94EA01119501951109B8010F
:1004B00080E00E94C601BE0181E0DF91CF911F91D3
:1004C0000F910C94C60160E081E00E94EA01E6CF42
:1004D00060E080E00E94EA01EACF8093C4001092BD
:1004E000C5001092C00088E18093C10086E080932F
:1004F000C20008959091C00095FFFCCF8093C60084
:100500000895CF938091C00087FFFCCFC091C600B3
:100510008C2F0E947A028C2FCF910895CF93DF9376
:10052000EC018991811103C0DF91CF9108950E9460
:100530007A02F7CF80E00E947E0121E030E084362D
:10054000910510F030E020E0C901089584E00E9498
:100550007E012BEFAC012403C001259F900D1124D7
:1005600085509C4E63E370E00E940D09CB01653617
:10057000710514F084E690E00895CF93DF93C0E016
:10058000D1E0CC0F8D2F0E947E018C3291400CF473
:10059000C160DF5FD430A9F78C2F90E0DF91CF915D
:1005A000089583B182958F7091E08927817090E0E2
:1005B000089583B186958695869591E08927817007
:1005C00090E008955B9A2FEF85EA9EE021508040ED
:1005D0009040E1F700C000005B982FEF85EA9EE0B5
:1005E000215080409040E1F700C00000089585E070
:1005F0000E947E01843F914010F4289A0895289823
:10060000089589B182FB882780F991E089270895B0
:100610000E9401038823E1F30895F89485E085BDE5
:1006200081E080936E0084E686BD7894089587E625
:100630000E946D020C9477010E9417030E94A3018F
:10064000539A5B98209A52985A9A2498239885B185
:10065000886185B960E080E00E94EA0160E081E0A5
:100660000E94EA0170E060E090E080E00C943F02BC
:100670004F925F926F927F928F929F92AF92BF92B2
:10068000CF92DF92EF92FF920F931F93CF93DF935E
:10069000CDB7DEB7DE015396ED91FD918D015AE0A5
:1006A000652E712C8081853281F45F0182E0A80E75
:1006B000B11C8181843609F450C090F4833661F412
:1006C000F80180810E5F1F4F07C0882309F45DC0C9
:1006D0005F019FEFA91AB90A0E947A02F501E2CFE1
:1006E000833771F130E1832E912CE12C40E1F42E1F
:1006F000883791F7F801C080D1800E5F1F4F843694
:1007000059F4D7FE06C0D194C194D1088DE20E945D
:100710007A02CE14DF0448F1C601B7010E94F9083D
:100720002C01675F7D4FFB0180810E947A0262018C
:10073000C701B4010E94F9087B01672B69F7CECF8E
:10074000F801E080F1800E5F1F4FF70181917F017A
:10075000882321F20E947A02F8CF9AE0892E912C08
:1007600020E1E22E27E2F22EC5CFC701B3010E949D
:10077000F9087B016230710560F6C6010E94F90834
:10078000FB01E75FFD4F8081A7CF90E080E0DF9124
:10079000CF911F910F91FF90EF90DF90CF90BF907E
:1007A000AF909F908F907F906F905F904F90089543
:1007B00000912A04039500932A04E0913A04F091F1
:1007C0003B04C191CDBFD191DEBF0F910FBFFF910F
:1007D000EF91DF91CF91BF91AF919F918F917F91D9
:1007E0006F915F914F913F912F911F910F91FF90CA
:1007F000EF90DF90CF90BF90AF909F908F907F90C1
:100800006F905F904F903F902F901F900F900895A2
:100810000F921F922F923F924F925F926F927F9210
:100820008F929F92AF92BF92CF92DF92EF92FF9200
:100830000F931F932F933F934F935F936F937F93E8
:100840008F939F93AF93BF93CF93DF93EF93FF93D8
:100850000FB70F93E0914204F0914304CDB7C193D9
:10086000DEB7D19300912F0400933004E0913A0455
:10087000F0913B04E0934204F0934304C191CDBF57
:10088000D191DEBF0F910FBFFF91EF91DF91CF911B
:10089000BF91AF919F918F917F916F915F914F9198
:1008A0003F912F911F910F91FF90EF90DF90CF908C
:1008B000BF90AF909F908F907F906F905F904F9080
:1008C0003F902F901F900F90089500912F04009358
:1008D0003004E0913A04F0913B04E0934204F09339
:1008E0004304C191CDBFD191DEBF0F910FBFFF91E6
:1008F000EF91DF91CF91BF91AF919F918F917F91B8
:100900006F915F914F913F912F911F910F91FF90A8
:10091000EF90DF90CF90BF90AF909F908F907F909F
:100920006F905F904F903F902F901F900F90089581
:100930000F921F922F923F924F925F926F927F92EF
:100940008F929F92AF92BF92CF92DF92EF92FF92DF
:100950000F931F932F933F934F935F936F937F93C7
:100960008F939F93AF93BF93CF93DF93EF93FF93B7
:100970000FB700680F930091410403950093410461
:10098000013041F4CDB7DEB7E0914204F091430469
:10099000C193D19304E606BDF0E01F2E78940E9427
:1009A000FB0500000E946E050F910FBFFF91EF91B4
:1009B000DF91CF91BF91AF919F918F917F916F9177
:1009C0005F914F913F912F911F910F91FF90EF9069
:1009D000DF90CF90BF90AF909F908F907F906F905F
:1009E0005F904F903F902F901F900F900895FA01C5
:1009F000808331979083319710823197108231979D
:100A0000108231971082319710823197108231977E
:100A1000108231971082319710823197108231976E
:100A2000108231971082319710823197108231975E
:100A3000108231971082319710823197108231974E
:100A4000108231971082319710823197108231973E
:100A5000108231971082319760833197708331977C
:100A6000108231971082319710823197108231971E
:100A7000108231971082319780E88083CA01839772
:100A8000089508950895089508950895089508957E
:100A900008950895F89480912B0490912C04A091CE
:100AA0002D04B0912E040196A11DB11D80932B043D
:100AB00090932C04A0932D04B0932E0478940E945C
:100AC0004805E8CF80912A04813039F480914104AF
:100AD0008F3F19F08F5F80934104089580912A041D
:100AE000813009F04CC0F89480914104882319F0BA
:100AF0008150809341048091410481113FC08091D5
:100B0000290481113BC0E0913C04F0E0EF5FFE4F0F
:100B1000E081E0934004AE2FB0E0A35CBB4FAC910A
:100B2000B0E0AF5FBE4FEE0FEE0FEE0F8C91E80F0F
:100B3000E0932F0480913004E81701F1F0E0EE0F0C
:100B4000FF1FED57FA4F8081918190933B04809372
:100B50003A048091330490913404A0913504B0910B
:100B600036040196A11DB11D809333049093340483
:100B7000A0933504B09336040E94650478940895D8
:100B800080912A04813049F4F894809129048F3FA0
:100B900019F08F5F809329047894089580912A0436
:100BA000811128C0E0913C04F0E0EF5FFE4FE0814E
:100BB000AE2FB0E0A35CBB4FAC91B0E0AF5FBE4FD7
:100BC000EE0FEE0FEE0F8C91E80FE0932F04E09301
:100BD0003004F0E0EE0FFF1FED57FA4F8081918156
:100BE00090933B0480933A0490934304809342048F
:100BF0000C94D80308950E94450580912A04E09141
:100C00003104F091320421E030E0813001F10895A7
:100C1000F894868197810097B1F001979783868336
:100C2000892B89F4808583FD16C080913C049585CD
:100C3000892B80933C04A385B0E0A35CBB4F8C91CF
:100C40009485892B8C930280F381E02D78948185A3
:100C50008031F1F6DCCF37832683F5CF8CEF90E03F
:100C600008950895F8948091410481113DC08091C8
:100C70002904811139C0E0913C04F0E0EF5FFE4FA0
:100C8000E081AE2FB0E0A35CBB4FAC91B0E0AF5FB2
:100C9000BE4FEE0FEE0FEE0F8C91E80FE0932F0496
:100CA00080913004E81701F1F0E0EE0FFF1FED57DF
:100CB000FA4F8081918190933B0480933A04809114
:100CC000330490913404A0913504B0913604019618
:100CD000A11DB11D8093330490933404A093350477
:100CE000B09336040E9408047894089580912A04F1
:100CF000813091F4F89480912904882361F0815027
:100D000080932904811107C080914104811103C09F
:100D100078940C94320678940895AC01F894A091DC
:100D20004204B09143041B96EC911B97F0E01C9693
:100D30009C911C979095E35CFB4F80819823908356
:100D400091110AC01D969C911D97292F2095909175
:100D50003C04922390933C0417965C934E93169711
:100D600078940C9432061F93CF93DF93F894C0913C
:100D70003704D0913804209709F454C0182F8A8181
:100D80009B819093380480933704789479836883A7
:100D9000198718861F821E821E86E12FE695E6952A
:100DA000E695EB87F0E0EF5FFD4F80818D87E12FC7
:100DB000E770EA87F0E0EF5FFD4F80818C87CE011E
:100DC0000E944905CE010E944105F894E12FF0E010
:100DD000EE0FFF1FED57FA4FD183C083E09131042E
:100DE000F0913204FB83EA831D821C82309711F05C
:100DF000D583C483D0933204C093310480913C04E2
:100E00009D85892B80933C04EB85F0E0E35CFB4FF0
:100E100080819C85892B8083789480E0DF91CF91BD
:100E20001F910895789486E4F9CF9F92AF92BF9274
:100E3000CF92DF92EF92FF920F931F93CF93DF93A6
:100E4000F894C22FD0E0CC0FDD1FCD57DA4FE881E8
:100E5000F981EF2B09F03BC0922E21E030E039837D
:100E60002883789430E020E00E94F704B12CA12C74
:100E7000D12CC12CE12CF12C870130E020E050E096
:100E800040E0BC01892D0E94B306182F81111AC0C1
:100E9000F894809139048F5F80933904789480911D
:100EA0002A04813011F40E943206812FDF91CF9104
:100EB0001F910F91FF90EF90DF90CF90BF90AF9078
:100EC0009F900895F894198218827894EECF7894C0
:100ED00018E2EBCF0E9446051092410410922904BB
:100EE0001092390410922A041092330410923404A0
:100EF000109235041092360410922B0410922C0498
:100F000010922D0410922E0410923C0410923D0475
:100F100010923E0410923F041092300410922F045D
:100F200010923B0410923A0410924304109242042F
:100F30001092320410923104E3E8F5E0119211921C
:100F400085E0E53AF807D1F7E4E8F4E0CF010F9641
:100F500093838283FC0185E0E437F807B9F71092A8
:100F600077051092760584E894E090933804809396
:100F7000370420E143E854E070E060E08AE495E063
:100F80000E9415070C944705FF920F931F93CF9370
:100F9000DF93F0904104F11076C0F8948F3F29F46C
:100FA000E0914204F09143048185082F10E0000F86
:100FB000111FF801ED57FA4FC081D181209709F434
:100FC0005EC0EB85F0E08C858095E35CFB4F908103
:100FD00089238083811108C08D85982F90958091F9
:100FE0003C04892380933C041F821E8218868091D2
:100FF00029048F3F19F08F5F809329047894F89427
:1010000080912904882319F0815080932904CE010E
:101010000E94420580913904815080933904F8017F
:10102000ED57FA4F11821082EC81FD81AA81BB81BC
:101030003097E1F415961C921E921497B0933204E7
:10104000A093310480913704909138049B838A8364
:10105000D0933804C093370478940E9432068F2DC1
:10106000DF91CF911F910F91FF900895B383A283D9
:10107000AA81BB811596FC93EE931497E3CF7894E5
:101080009CE3F92EECCF8FE3F82EE9CF8F3F41F4AC
:10109000F894E0914204F091430486857894089591
:1010A000F894E82FF0E0EE0FFF1FED57FA4F019094
:1010B000F081E02D8BE0309789F38EE3868780E026
:1010C000EDCF009711F00C948D060895CF92DF922A
:1010D000EF92FF9281110DC061110BC041110CC044
:1010E0002115310561F484E5FF90EF90DF90CF90FA
:1010F00008956C3308F04FC04C3308F04EC0283EC2
:1011000093E0390708F04BC0F901582F262F30E043
:10111000ACE3B0E00E9443096B017C01C40ED11C1A
:10112000E11CF11C252F30E0A0E1BEE00E94430944
:10113000A7019601260F371F481F591FA4E6B0E0EC
:101140000E9452096B017C019F010E9443096C506F
:101150007E4F8F4F9F4F28EE33E040E050E00E94DB
:101160002109D701C601820F931FA41FB51F7D015E
:101170000E946108E114F10411F480E0B5CF80E031
:1011800090E80E948D0680E090E80E948D0681E044
:10119000E81AF108EFCF81E5A7CF82E5A5CF83E577
:1011A000A3CF0E941C030E946A0770E060E090E0F9
:1011B00080E00E943F0210929B0210929A021092CD
:1011C0009D0210929C0210929E0210922003109297
:1011D0001F0321E040EA53E070E060E088E491E022
:1011E0000E9415070E94E2020E9408030E94CE0599
:1011F000FFCFAA1BBB1B51E107C0AA1FBB1FA6172D
:10120000B70710F0A61BB70B881F991F5A95A9F7AF
:1012100080959095BC01CD01089597FB072E16F49B
:10122000009407D077FD09D00E94F90807FC05D08B
:101230003EF4909581959F4F0895709561957F4FED
:101240000895A1E21A2EAA1BBB1BFD010DC0AA1F07
:10125000BB1FEE1FFF1FA217B307E407F50720F01F
:10126000A21BB30BE40BF50B661F771F881F991F9A
:101270001A9469F760957095809590959B01AC01E3
:10128000BD01CF010895A29FB001B39FC001A39FEC
:10129000700D811D1124911DB29F700D811D1124AF
:1012A000911D08950E944309A59F900DB49F900D34
:0E12B000A49F800D911D11240895F894FFCF86
:1012BE000100000100020001000300010002000114
:1012CE000004000100020001000300010002000101
:1012DE0000050001000200010003000100020001F0
:1012EE0000040001000200010003000100020001E1
:1012FE0000060001000200010003000100020001CF
:10130E0000040001000200010003000100020001C0
:10131E0000050001000200010003000100020001AF
:10132E0000040001000200010003000100020001A0
:10133E00000700010002000100030001000200018D
:10134E000004000100020001000300010002000180
:10135E00000500010002000100030001000200016F
:10136E000004000100020001000300010002000160
:10137E00000600010002000100030001000200014E
:10138E000004000100020001000300010002000140
:10139E00000500010002000100030001000200012F
:1013AE000004000100020001000300010002000120
:1013BE0000010204081020408030313233343536BB
:0A13CE0037383941424344454600D8
:00000001FF
