:100000000C9434000C9451000C9451000C94510049
:100010000C9451000C9451000C9451000C9451001C
:100020000C9451000C9451000C9451000C9451000C
:100030000C9451000C9451000C9451000C945100FC
:100040000C9477040C9451000C9451000C945100C2
:100050000C9451000C9451000C9451000C945100DC
:100060000C9451000C94510011241FBECFEFD8E026
:10007000DEBFCDBF12E0A0E0B1E0ECE7F2E102C0EC
:1000800005900D92AA31B107D9F725E0AAE1B2E0B7
:1000900001C01D92A53AB207E1F70E94B0080C9486
:1000A0003C090C940000C1E00E947902019751F4D0
:1000B000C0939E0224E630E040E060E080E00E94D1
:1000C0004508F2CF10929E02F5CF60919A0270918E
:1000D0009B0280919C0290919D020E941E022AE048
:1000E00030E040E060E080E00E944508EECFCDEDDA
:1000F000DFEF83E2482E512C02E310E09BE4692EEF
:10010000712C2EECC22EDD24DA9438EDA32EBB2404
:10011000BA9446E4E42EF12C5CE3852E912C809178
:100120009E02813081F4D0939B02C0939A02D093B7
:100130009D02C0939C022AE030E040E060E080E055
:100140000E944508ECCF0E949C020297D1F41092C5
:10015000200310921F0390929B0280929A02909229
:100160009D0280929C020E948502813591051CF3BC
:10017000D0939B02C0939A0250929D0240929C029F
:10018000DACF0E949C02049769F410922003109227
:100190001F03F0929B02E0929A02B0929D02A092FD
:1001A0009C02E1CF0E949C02019769F41092200307
:1001B00010921F03D0929B02C0929A02F0929D026D
:1001C000E0929C02D0CF0E949C02069769F41092A4
:1001D000200310921F0310939B0200939A02D09366
:1001E0009D02C0939C02BFCF0E949C02039769F4BA
:1001F0001092200310921F03D0939B02C0939A0287
:1002000010939D0200939C02AECF0E949C02892B0A
:10021000A9F480911F0390912003019690932003ED
:1002200080931F034E972CF0F0929B02E0929A026B
:10023000E7CFD0929B02C0929A02AFCF10939B025D
:1002400000939A0270929D0260929C028CCFCF9391
:10025000DF9300D0CDB7DEB70E94EC0222E049E97F
:1002600052E070E060E083E590E00E94F40623E055
:100270004EE153E070E060E085E690E00E94F40615
:1002800024E040E254E0BE016F5F7F4F87E790E0DB
:100290000E94F40611E030E020E045E060E080E0FC
:1002A0000E94450885B1812785B9F5CF80E4809308
:1002B0007C0086E880937A000895F89480648093A7
:1002C0007C0080917A00806480937A0080917A002B
:1002D00084FFFCCF80917A00806180937A007894CB
:1002E000809178009091790093700895811105C0F4
:1002F0007093890060938800089570938B006093D9
:100300008A0008958AB1806F8AB98BB18F708BB9DA
:1003100081EA8093800083E08093810010928500C1
:100320001092840010928900A8E8B0E01C9210920C
:100330008B00EAE8F0E0108284B1866084B91196FF
:100340001C921E9211821082089577FF02C070E005
:1003500060E06536710514F064E670E09B01220FE1
:10036000331F75956795620F731F811109C07093D4
:100370008B0060938A007093220460932104089597
:10038000709389006093880070932604609325041D
:100390000895CF93C62F262F30E081112BC0809176
:1003A0002304909124048217930759F070E060E0D1
:1003B00080E00E94A5018FE99FE00197F1F700C05E
:1003C0000000C1110EC05E985F9A10922404109232
:1003D00023048FE39CE90197F1F700C00000CF915F
:1003E00008955E9A5F9881E090E090932404809352
:1003F0002304EFCF8091270490912804821793075C
:1004000059F070E060E081E00E94A5018FE99FE073
:100410000197F1F700C00000C11107C05C9A5D9818
:100420001092280410922704D4CF5C985D9A81E042
:1004300090E09093280480932704CBCF0F931F93D1
:10044000CF93DF93EC018B0197FF1CC061E081E04B
:100450000E94C901D195C195D10917FF18C061E06B
:1004600080E00E94C901119501951109B80180E051
:100470000E94A501BE0181E0DF91CF911F910F91F4
:100480000C94A50160E081E00E94C901E6CF60E024
:1004900080E00E94C901EACF8093C4001092C50099
:1004A0001092C00088E18093C10086E08093C20072
:1004B00008959091C00095FFFCCF8093C6000895E9
:1004C000CF938091C00087FFFCCFC091C6008C2FD6
:1004D0000E9459028C2FCF910895CF93DF93EC01A6
:1004E0008991811103C0DF91CF9108950E94590233
:1004F000F7CF80E00E945D0121E030E08436910575
:1005000010F030E020E0C901089584E00E945D0110
:100510002BEFAC012403C001259F900D11248550C1
:100520009C4E63E370E00E94EC08CB0165367105D8
:1005300014F084E690E00895CF93DF93C0E0D1E01B
:10054000CC0F8D2F0E945D018C3291400CF4C16064
:10055000DF5FD430A9F78C2F90E0DF91CF91089521
:1005600083B182958F7091E08927817090E0089522
:1005700083B186958695869591E08927817090E074
:1005800008955B9A2FEF85EA9EE0215080409040CD
:10059000E1F700C000005B982FEF85EA9EE0215054
:1005A00080409040E1F700C00000089585E00E947F
:1005B0005D01843F914010F4289A08952898089589
:1005C00089B182FB882780F991E0892708950E94EC
:1005D000E0028823E1F30895F89485E085BD81E089
:1005E00080936E0084E686BD7894089587E60E9425
:1005F0004C020C9456010E94F6020E948201539A0A
:100600005B98209A52985A9A2498239885B18861C9
:1006100085B960E080E00E94C90160E081E00E944D
:10062000C90170E060E090E080E00C941E024F92FF
:100630005F926F927F928F929F92AF92BF92CF9272
:10064000DF92EF92FF920F931F93CF93DF93CDB77B
:10065000DEB7DE015396ED91FD918D015AE0652ED6
:10066000712C8081853281F45F0182E0A80EB11C7B
:100670008181843609F450C090F4833661F4F80126
:1006800080810E5F1F4F07C0882309F45DC05F01A2
:100690009FEFA91AB90A0E945902F501E2CF8337E8
:1006A00071F130E1832E912CE12C40E1F42E88375A
:1006B00091F7F801C080D1800E5F1F4F843659F446
:1006C000D7FE06C0D194C194D1088DE20E94590290
:1006D000CE14DF0448F1C601B7010E94D8082C01EE
:1006E000685F7D4FFB0180810E9459026201C70152
:1006F000B4010E94D8087B01672B69F7CECFF801BF
:10070000E080F1800E5F1F4FF70181917F01882308
:1007100021F20E945902F8CF9AE0892E912C20E113
:10072000E22E27E2F22EC5CFC701B3010E94D808FE
:100730007B016230710560F6C6010E94D808FB019A
:10074000E85FFD4F8081A7CF90E080E0DF91CF91FF
:100750001F910F91FF90EF90DF90CF90BF90AF90DF
:100760009F908F907F906F905F904F900895009131
:100770002A04039500932A04E0913A04F0913B0483
:10078000C191CDBFD191DEBF0F910FBFFF91EF910E
:10079000DF91CF91BF91AF919F918F917F916F9199
:1007A0005F914F913F912F911F910F91FF90EF908B
:1007B000DF90CF90BF90AF909F908F907F906F9081
:1007C0005F904F903F902F901F900F9008950F9241
:1007D0001F922F923F924F925F926F927F928F92D1
:1007E0009F92AF92BF92CF92DF92EF92FF920F93C0
:1007F0001F932F933F934F935F936F937F938F93A9
:100800009F93AF93BF93CF93DF93EF93FF930FB774
:100810000F93E0914204F0914304CDB7C193DEB74A
:10082000D19300912F0400933004E0913A04F091A9
:100830003B04E0934204F0934304C191CDBFD191B6
:10084000DEBF0F910FBFFF91EF91DF91CF91BF916D
:10085000AF919F918F917F916F915F914F913F9158
:100860002F911F910F91FF90EF90DF90CF90BF904D
:10087000AF909F908F907F906F905F904F903F9040
:100880002F901F900F90089500912F040093300433
:10089000E0913A04F0913B04E0934204F093430466
:1008A000C191CDBFD191DEBF0F910FBFFF91EF91ED
:1008B000DF91CF91BF91AF919F918F917F916F9178
:1008C0005F914F913F912F911F910F91FF90EF906A
:1008D000DF90CF90BF90AF909F908F907F906F9060
:1008E0005F904F903F902F901F900F9008950F9220
:1008F0001F922F923F924F925F926F927F928F92B0
:100900009F92AF92BF92CF92DF92EF92FF920F939E
:100910001F932F933F934F935F936F937F938F9387
:100920009F93AF93BF93CF93DF93EF93FF930FB753
:1009300000680F9300914104039500934104013036
:1009400041F4CDB7DEB7E0914204F0914304C19386
:10095000D19304E606BDF0E01F2E78940E94DA05DC
:1009600000000E944D050F910FBFFF91EF91DF91A5
:10097000CF91BF91AF919F918F917F916F915F9137
:100980004F913F912F911F910F91FF90EF90DF902A
:10099000CF90BF90AF909F908F907F906F905F901F
:1009A0004F903F902F901F900F900895FA018083F1
:1009B000319790833197108231971082319710824E
:1009C00031971082319710823197108231971082BF
:1009D00031971082319710823197108231971082AF
:1009E000319710823197108231971082319710829F
:1009F000319710823197108231971082319710828F
:100A0000319710823197108231971082319710827E
:100A100031971082319760833197708331971082BC
:100A2000319710823197108231971082319710825E
:100A300031971082319780E88083CA0183970895A7
:100A400008950895089508950895089508950895BE
:100A50000895F89480912B0490912C04A0912D047A
:100A6000B0912E040196A11DB11D80932B0490938B
:100A70002C04A0932D04B0932E0478940E94270593
:100A8000E8CF80912A04813039F4809141048F3F6E
:100A900019F08F5F80934104089580912A0481307A
:100AA00009F04CC0F89480914104882319F08150DA
:100AB000809341048091410481113FC080912904B9
:100AC00081113BC0E0913C04F0E0E050FF4FE08139
:100AD000E0934004AE2FB0E0A35CBB4FAC91B0E01C
:100AE000A050BF4FEE0FEE0FEE0F8C91E80FE0938A
:100AF0002F0480913004E81701F1F0E0EE0FFF1FA2
:100B0000ED57FA4F8081918190933B0480933A0492
:100B10008091330490913404A0913504B09136044F
:100B20000196A11DB11D8093330490933404A093CA
:100B30003504B09336040E9444047894089580915B
:100B40002A04813049F4F894809129048F3F19F0E8
:100B50008F5F809329047894089580912A048111ED
:100B600028C0E0913C04F0E0E050FF4FE081AE2F60
:100B7000B0E0A35CBB4FAC91B0E0A050BF4FEE0F14
:100B8000EE0FEE0F8C91E80FE0932F04E09330040A
:100B9000F0E0EE0FFF1FED57FA4F808191819093A7
:100BA0003B0480933A0490934304809342040C9452
:100BB000B70308950E94240580912A04E09131042E
:100BC000F091320421E030E0813001F10895F89491
:100BD000868197810097B1F0019797838683892B4F
:100BE00089F4808583FD16C080913C049585892B0E
:100BF00080933C04A385B0E0A35CBB4F8C919485AB
:100C0000892B8C930280F381E02D7894818580314B
:100C1000F1F6DCCF37832683F5CF8CEF90E0089593
:100C20000895F8948091410481113DC08091290478
:100C3000811139C0E0913C04F0E0E050FF4FE081C9
:100C4000AE2FB0E0A35CBB4FAC91B0E0A050BF4F63
:100C5000EE0FEE0FEE0F8C91E80FE0932F048091D2
:100C60003004E81701F1F0E0EE0FFF1FED57FA4FE7
:100C70008081918190933B0480933A048091330466
:100C800090913404A0913504B09136040196A11DD1
:100C9000B11D8093330490933404A0933504B09332
:100CA00036040E94E7037894089580912A048130E5
:100CB00091F4F89480912904882361F08150809305
:100CC0002904811107C080914104811103C07894E7
:100CD0000C94110678940895AC01F894A091420404
:100CE000B09143041B96EC911B97F0E01C969C91ED
:100CF0001C979095E35CFB4F808198239083911122
:100D00000AC01D969C911D97292F209590913C0417
:100D1000922390933C0417965C934E931697789485
:100D20000C9411061F93CF93DF93F894C09137046E
:100D3000D0913804209709F454C0182F8A819B81E0
:100D40009093380480933704789479836883198763
:100D500018861F821E821E86E12FE695E695E6958F
:100D6000EB87F0E0E050FE4F80818D87E12FE77048
:100D7000EA87F0E0E050FE4F80818C87CE010E9430
:100D80002805CE010E942005F894E12FF0E0EE0F37
:100D9000FF1FED57FA4FD183C083E0913104F091EA
:100DA0003204FB83EA831D821C82309711F0D583C5
:100DB000C483D0933204C093310480913C049D8558
:100DC000892B80933C04EB85F0E0E35CFB4F808152
:100DD0009C85892B8083789480E0DF91CF911F914F
:100DE0000895789486E4F9CF9F92AF92BF92CF9204
:100DF000DF92EF92FF920F931F93CF93DF93F894BC
:100E0000C22FD0E0CC0FDD1FCD57DA4FE881F9813A
:100E1000EF2B09F03BC0922E21E030E0398328838C
:100E2000789430E020E00E94D604B12CA12CD12C83
:100E3000C12CE12CF12C870130E020E050E040E0B3
:100E4000BC01892D0E949206182F81111AC0F894B6
:100E5000809139048F5F80933904789480912A04BB
:100E6000813011F40E941106812FDF91CF911F91E3
:100E70000F91FF90EF90DF90CF90BF90AF909F9039
:100E80000895F894198218827894EECF789418E235
:100E9000EBCF0E9425051092410410922904109274
:100EA000390410922A0410923304109234041092E0
:100EB00035041092360410922B0410922C041092D8
:100EC0002D0410922E0410923C0410923D041092B6
:100ED0003E0410923F041092300410922F0410929E
:100EE0003B0410923A041092430410924204109270
:100EF000320410923104E3E8F5E01192119285E09A
:100F0000E53AF807D1F7E4E8F4E0CF010F969383D0
:100F10008283FC0185E0E437F807B9F71092770582
:100F20001092760584E894E0909338048093370417
:100F300020E143E854E070E060E089E295E00E943F
:100F4000F4060C942605FF920F931F93CF93DF9323
:100F5000F0904104F11076C0F8948F3F29F4E091AD
:100F60004204F09143048185082F10E0000F111F07
:100F7000F801ED57FA4FC081D181209709F45EC086
:100F8000EB85F0E08C858095E35CFB4F90818923B5
:100F90008083811108C08D85982F909580913C04A5
:100FA000892380933C041F821E8218868091290425
:100FB0008F3F19F08F5F809329047894F894809183
:100FC0002904882319F0815080932904CE010E94BE
:100FD000210580913904815080933904F801ED573F
:100FE000FA4F11821082EC81FD81AA81BB8130977A
:100FF000E1F415961C921E921497B0933204A093BC
:10100000310480913704909138049B838A83D09374
:101010003804C093370478940E9411068F2DDF9115
:10102000CF911F910F91FF900895B383A283AA815E
:10103000BB811596FC93EE931497E3CF78949CE3D1
:10104000F92EECCF8FE3F82EE9CF8F3F41F4F894DF
:10105000E0914204F0914304868578940895F894D1
:10106000E82FF0E0EE0FFF1FED57FA4F0190F081EF
:10107000E02D8BE0309789F38EE3868780E0EDCF1B
:10108000009711F00C946C060895CF92DF92EF92C6
:10109000FF9281110DC061110BC041110CC02115CF
:1010A000310561F484E5FF90EF90DF90CF900895D3
:1010B0006C3308F04FC04C3308F04EC0283E93E02C
:1010C000390708F04BC0F901582F262F30E0ACE368
:1010D000B0E00E9422096B017C01C40ED11CE11C0E
:1010E000F11C252F30E0A0E1BEE00E942209A701FB
:1010F0009601260F371F481F591FA4E6B0E00E9433
:1011000031096B017C019F010E9422096C507E4FC6
:101110008F4F9F4F28EE33E040E050E00E940009DF
:10112000D701C601820F931FA41FB51F7D010E9426
:101130004008E114F10411F480E0B5CF80E090E8BC
:101140000E946C0680E090E80E946C0681E0E81A3C
:10115000F108EFCF81E5A7CF82E5A5CF83E5A3CF47
:101160000E94FB020E94490770E060E090E080E08E
:101170000E941E0210929B0210929A0210929D02EF
:1011800010929C0210929E021092200310921F0354
:1011900021E040EA53E070E060E087E291E00E94E5
:1011A000F4060E94C1020E94E7020E94AD05FFCF33
:1011B000AA1BBB1B51E107C0AA1FBB1FA617B7077D
:1011C00010F0A61BB70B881F991F5A95A9F7809599
:1011D0009095BC01CD01089597FB072E16F400945D
:1011E00007D077FD09D00E94D80807FC05D03EF44F
:1011F000909581959F4F0895709561957F4F0895C3
:10120000A1E21A2EAA1BBB1BFD010DC0AA1FBB1F0A
:10121000EE1FFF1FA217B307E407F50720F0A21B7C
:10122000B30BE40BF50B661F771F881F991F1A94E9
:1012300069F760957095809590959B01AC01BD0113
:10124000CF010895A29FB001B39FC001A39F700D6D
:10125000811D1124911DB29F700D811D1124911DBE
:1012600008950E942209A59F900DB49F900DA49F00
:0C127000800D911D11240895F894FFCF0B
:10127C000000010002000100030001000200010057
:10128C000400010002000100030001000200010043
:10129C000500010002000100030001000200010032
:1012AC000400010002000100030001000200010023
:1012BC000600010002000100030001000200010011
:1012CC000400010002000100030001000200010003
:1012DC0005000100020001000300010002000100F2
:1012EC0004000100020001000300010002000100E3
:1012FC0007000100020001000300010002000100D0
:10130C0004000100020001000300010002000100C2
:10131C0005000100020001000300010002000100B1
:10132C0004000100020001000300010002000100A2
:10133C000600010002000100030001000200010090
:10134C000400010002000100030001000200010082
:10135C000500010002000100030001000200010071
:10136C000400010002000100030001000200010062
:10137C0001020408102040803031323334353637C6
:0A138C003839414243444546000051
:00000001FF
